:100000000C94B3000C94D0000C94D0000C94D0004D
:100010000C94D0000C94D0000C94D0000C94D00020
:100020000C94D0000C94D0000C9483060C94D00057
:100030000C94D0000C94D0000C94D0000C94D00000
:100040000C94320F0C94940F0C949F0F0C94AA0FE5
:100050000C941A0F0C94D0000C94D0000C94D00087
:100060000C94D0000C94D0000C94D0000C94D000D0
:100070000C94D0000C94D0000C94D0000C94D000C0
:100080000C94730F0C947E0F0C94890F0C94E60E55
:100090000C948B100C94D0000C94D0000C94D000D5
:1000A0000C94D0000C94D0000C94D0009707C30798
:1000B0000809C307080907082B0808099908AB08AD
:1000C000AC10CF11CF11CF11CF11CF11CF11CF1154
:1000D000AC10CF11CF11CF11CF11CF11CF11CF1144
:1000E000D410CF11CF11CF11CF11CF11CF11CF110C
:1000F000DB10CF11CF11CF11CF11CF11CF11CF11F5
:10010000F010CF11CF11CF11CF11CF11CF11CF11CF
:100110000F11CF11CF11CF11CF11CF11CF11CF119F
:100120001311CF11CF11CF11CF11CF11CF11CF118B
:100130001711CF11CF11CF11CF11CF11CF11CF1177
:100140001B11CF11CF11CF11CF11CF11CF11CF1163
:100150004011CF11CF11CF11CF11CF11CF11CF112E
:1001600066110403090411241FBECFEFDAE0DEBFDD
:10017000CDBF11E0A0E0B1E0E6EDF9E202C00590EC
:100180000D92AA3EB107D9F722E0AAEEB1E001C074
:100190001D92A639B207E1F70E941A0D0C94E914DA
:1001A0000C944909692F77276230710559F0633043
:1001B000710569F06130710509F582E190E0E8EDC3
:1001C000F1E025C086E490E0E2E9F1E020C0992763
:1001D0008130910549F018F0029759F014C0E2E619
:1001E000F1E0849190E013C0E8E7F1E0849190E0C1
:1001F0000EC0E6E5F1E0849190E009C080E090E077
:10020000E0E0F0E004C080E090E0E0E0F0E062E0F8
:10021000D9016C93DA01ED93FC9308954EE750E019
:1002200065E070E08CEE91E00E94C71408954EE7FF
:1002300050E065E070E08CEE91E00E94AF140E9407
:10024000D60A089584B7877F84BF0FB6F894A8951F
:1002500080916000886180936000109260000FBE02
:1002600090E080E80FB6F89480936100909361006D
:100270000FBE0E94540608950895089542E360E871
:1002800082E00E94F80442E361E881E00E94F80401
:1002900042E061EC83E00E94F804109200011092A9
:1002A000010110920201109203010895CF93DF9390
:1002B00080918F02813229F0823249F1803291F5AA
:1002C00013C080918E02813A69F5C8EED0E0888132
:1002D000877F888367E070E080E091E00E94A10260
:1002E00088818B7788831EC080918E028132D1F401
:1002F000C8EED0E08881877F888367E070E080E087
:1003000091E00E94370388818E7788830BC08091AB
:100310008E02813239F4E8EEF0E08081877F8083BD
:100320000E945E05DF91CF910895FC0190918D02AE
:10033000943031F584899589A689B789892B8A2BD0
:100340008B2B01F181818F708093E9002091F30064
:100350008091F20090E0922B892BB1F0E8EEF0E072
:10036000908180818E77808395FD10C00E948205E8
:1003700081110DC0E8EEF0E090819E7790830895A2
:1003800082E0089582E0089580E0089580E0089575
:10039000FC0190918D02943099F484899589A68905
:1003A000B789892B8A2B8B2B59F081818F70809391
:1003B000E9008091E80080FF03C0CF010E94950111
:1003C00008958F929F92AF92BF92CF92DF92EF9259
:1003D000FF920F931F93CF93DF938C01EB015A0190
:1003E0000E948205811140C0A114B10439F0F501C9
:1003F00080819181C81BD90B080F191F209799F193
:10040000E12CF12C0F2EF8EE8F2E912CF02D0F2ECB
:10041000F1EFCF2ED12CF02DF401808185FD16C097
:1004200080818E7780830E942E09A114B10449F047
:10043000F50180819181E80EF91EF182E08285E06C
:1004400013C00E948205882351F00EC0F8018191EB
:100450008F01F60180832197FFEFEF1AFF0A2097A3
:10046000D9F680E001C080E0DF91CF911F910F911C
:10047000FF90EF90DF90CF90BF90AF909F908F90C4
:1004800008958F929F92AF92BF92CF92DF92EF9298
:10049000FF920F931F93CF93DF938C01EB015A01CF
:1004A0000E948205811140C0A114B10439F0F50108
:1004B00080819181C81BD90B080F191F209799F1D2
:1004C000E12CF12C0F2EF8EE8F2E912CF02D0F2E0B
:1004D000F1EFCF2ED12CF02DF401808185FD16C0D7
:1004E00080818B7780830E942E09A114B10449F08A
:1004F000F50180819181E80EF91EF182E08285E0AC
:1005000013C00E948205882351F00EC0F60180813D
:10051000F80181938F012197FFEFEF1AFF0A2097CF
:10052000D9F680E001C080E0DF91CF911F910F915B
:10053000FF90EF90DF90CF90BF90AF909F908F9003
:100540000895AF92BF92CF92DF92EF92FF920F93F6
:100550001F93CF93DF932091940230919502261739
:10056000370758F06115710539F4E8EEF0E02081A5
:100570002E7720839B0101C09B01A82FB92F90E00B
:10058000E8EEF0E063EF70E042EF50E00F2EF1EFA5
:10059000AF2EB12CF02DFF24F394E12C3BC08091C1
:1005A0008D02882309F44DC0853009F44CC0808148
:1005B00083FD4BC0808182FD3DC0808180FF2AC0C9
:1005C000EB018881EA01088110E0182B2115310523
:1005D000B1F08091220190E00817190780F48D9105
:1005E000E5018883215031090F5F1F4F2115310527
:1005F00031F08091220190E00817190780F3C09034
:100600002201D12C9F2DC016D10609F09E2D80818C
:100610008E7780832115310511F69111C0CF0AC064
:1006200080918D02882399F0853099F0808183FF35
:1006300003C011C0E8EEF0E0808182FFF1CF80E0DE
:100640000BC082E009C083E007C081E005C082E002
:1006500003C083E001C081E0DF91CF911F910F9132
:10066000FF90EF90DF90CF90BF90AF900895EF9202
:10067000FF921F93CF93DF936115710551F5E8EE5B
:10068000F0E080818B77808345C080918D02882344
:1006900009F447C0853009F446C0808183FD45C018
:1006A000808182FFF2CF4DC0EA0188818D93615035
:1006B000710941F0E9011881E701888190E0912BEF
:1006C000892B91F780818B7780836115710571F497
:1006D00021C0A82FB92FE8EEF0E023EF30E00F2E75
:1006E000F2EFEF2EF12CF02D41EF50E080918D02D2
:1006F0008823E9F08530E9F0808183FD1CC080818A
:1007000082FD1FC0C2CF80918D028823B1F0853059
:1007100019F415C0E8EEF0E0808180FFF4CF80E0AE
:100720001AC082E018C083E016C081E014C082E0E5
:1007300012C083E010C081E00EC082E00CC083E0F4
:100740000AC0E9011881E701888190E0912B892B8B
:1007500009F0AACFB7CFDF91CF911F91FF90EF9013
:100760000895AF92BF92CF92DF92EF92FF920F93D4
:100770001F93CF93DF932091940230919502261717
:10078000370758F06115710539F4E8EEF0E0208183
:100790002E7720839B0101C09B01E82FF92F90E069
:1007A000A8EEB0E063EF70E042EF50E00F2EF1EF03
:1007B000AF2EB12CF02DFF24F394E12C3CC080919E
:1007C0008D02882309F44FC0853009F44EC08C9106
:1007D00083FD4DC08C9182FD3FC08C9180FF2BC06A
:1007E000EB018881EA01088110E0182B2115310501
:1007F000B9F08091220190E00817190788F48491DC
:10080000E50188833196215031090F5F1F4F211573
:10081000310531F08091220190E00817190778F333
:10082000C0902201D12C9F2DC016D10609F09E2D1B
:100830008C918E778C932115310509F0C0CF9111E1
:10084000BECF0AC080918D02882399F0853099F03F
:10085000808183FF03C011C0E8EEF0E0808182FF59
:10086000F1CF80E00BC082E009C083E007C081E0E7
:1008700005C082E003C083E001C081E0DF91CF9139
:100880001F910F91FF90EF90DF90CF90BF90AF90AE
:1008900008954F925F926F927F928F929F92AF9244
:1008A000BF92CF92DF92EF92FF920F931F93CF935D
:1008B000DF9300919402109195020617170758F0E4
:1008C0006115710539F4E8EEF0E020812E77208380
:1008D0008B0101C08B01E82EF92E90E0C8EED0E02C
:1008E0000F2EF3EFAF2EB12CF02D0F2EF2EF6F2E57
:1008F000712CF02D0F2EF1EFCF2ED12CF02D552491
:100900005394412C41C080918D02882309F454C036
:10091000853009F453C0888183FD52C0888182FDEF
:1009200044C0888180FF30C0F5018081F301808060
:10093000912C982A01151105E1F08091220190E097
:1009400088169906B0F4C7010E94BF14F60180838F
:10095000FFEFEF1AFF0A015011098FEF881A980A6A
:100960000115110531F08091220190E08816990659
:1009700050F32091220130E0952D2815390509F01A
:10098000942D88818E7788830115110509F0BBCFDE
:100990009111B9CF0AC080918D02882399F08530DA
:1009A00099F0808183FF03C011C0E8EEF0E0808100
:1009B00082FFF1CF80E00BC082E009C083E007C076
:1009C00081E005C082E003C083E001C081E0DF91E7
:1009D000CF911F910F91FF90EF90DF90CF90BF903C
:1009E000AF909F908F907F906F905F904F90089501
:1009F0008F929F92BF92CF92DF92EF92FF920F93CE
:100A00001F93CF93DF93873070F126C0292F2F706B
:100A1000E7012883891731F0E80178812081E4011A
:100A2000588103C0242F762F5B2D21FF12C03C91EB
:100A30003E7F3C9330813D7F30833C9131603C93DD
:100A4000E80178832083E4015883E601288122238A
:100A500044F49F5F9730D1F68F708093E90081E076
:100A600021C080E01FC0982F9F709093E900982FBD
:100A7000242F762F50E0ABEEB0E0EDEEF0E00CEE80
:100A800010E00F2EF0EF8F2E912CF02D0F2EFEEE9A
:100A9000CF2ED12CF02D0F2EF9EEEF2EF12CF02DC4
:100AA000B12CC3CFDF91CF911F910F91FF90EF90A9
:100AB000DF90CF90BF909F908F90089580918E028D
:100AC000882344F0E8EEF0E014C080918D0281119B
:100AD00003C00895E8EEF0E0808182FFF6CFE8EEF3
:100AE000F0E080818B778083089580918D02882348
:100AF00041F0808180FFF9CFE8EEF0E080818E77D1
:100B0000808308950F931F93CF93DF932091E40088
:100B10003091E50065E6ACEEB0E0E8EEF0E00BEE1B
:100B200010E044EE50E001C09C019C91892F81703F
:100B300090FD1DC020C080918D02882381F08530FA
:100B400081F0E801888185FD0EC0EA0188819981E4
:100B50002817390751F3615039F784E00FC082E05C
:100B60000DC083E00BC081E009C080E007C0808138
:100B700080FFE1CFFACF908192FFDDCFDF91CF915F
:100B80001F910F910895CF93DF9300D01F92CDB79F
:100B9000DEB70E9476060E947E06E8EDF0E08081D6
:100BA0008F77808380818068808380818F7D808340
:100BB0008091880282FF19BC10928D0210928902E6
:100BC00010928B0210928A029E012D5F3F4FAE0160
:100BD0004F5F5F4F60E070E080E091E00E94D200E4
:100BE000892BC9F08B81811107C0E981FA81379681
:100BF000E491E09322010FC0813041F489819A8110
:100C000007960E94BF148093220105C0E981FA81F2
:100C10008781809322018091880280FF06C0E0EEE8
:100C2000F0E080818460808305C0E0EEF0E08081A8
:100C30008B7F8083E8EDF0E080818160808320916C
:100C4000220130E02930310550F088E090E040E0AA
:100C50004F5F880F991F82179307D0F301C040E0C0
:100C60004295407F426060E080E00E94F804E1EE3F
:100C7000F0E080818E7F8083E2EEF0E08081816011
:100C80008083808188608083E0EEF0E080818E7FC9
:100C90008083E8EDF0E08081806180830F900F9089
:100CA0000F90DF91CF91089580938802E8EDF0E0F6
:100CB00080818F7E80838091880281FD06C0E7ED70
:100CC000F0E080818160808305C0E7EDF0E0808105
:100CD0008E7F80838091880282FD02C084E082BF83
:100CE00081E080938C020E94C3050895E8EDF0E056
:100CF00080818E7F80831092E20008951092DA0046
:100D00001092E10008951F920F920FB60F921124D6
:100D10002F933F934F935F936F937F938F939F9303
:100D2000AF93BF93EF93FF938091E10082FF0BC0DD
:100D30008091E20082FF07C0E1EEF0E080818B7FCE
:100D400080830E942D098091DA0080FF26C0809167
:100D5000D80080FF22C0EAEDF0E080818E7F8083A2
:100D60008091D90080FF11C08091880282FD07C068
:100D700080E189BD82E189BD09B400FEFDCF81E03B
:100D800080938D020E943C0108C08091880282FFFE
:100D900019BC10928D020E943D018091E10080FFFC
:100DA0001AC08091E20080FF16C0E2EEF0E0808180
:100DB0008E7F8083808180618083E8EDF0E0808198
:100DC000806280838091880282FF19BC85E08093D5
:100DD0008D020E942D098091E10084FF34C0809132
:100DE000E20084FF30C08091880282FD07C080E16C
:100DF00089BD82E189BD09B400FEFDCFE8EDF0E0D8
:100E000080818F7D8083E1EEF0E080818F7E808322
:100E1000E2EEF0E080818F7E80838081816080833C
:100E200080918902882321F084E080938D0209C09B
:100E30008091E300882314F081E001C083E0809377
:100E40008D020E942D098091E10083FF33C08091C3
:100E5000E20083FF2FC0E1EEF0E08081877F808396
:100E600082E080938D021092890280818E7F808340
:100E7000E2EEF0E080818E7F8083808180618083DC
:100E80002091220130E02930310550F088E090E0D7
:100E900040E04F5F880F991F82179307D0F301C07E
:100EA00040E04295407F426060E080E00E94F804AC
:100EB0000E942D09FF91EF91BF91AF919F918F916A
:100EC0007F916F915F914F913F912F910F900FBE46
:100ED0000F901F9018950F931F93CF93DF93CDB76B
:100EE000DEB7AB970FB6F894DEBF0FBECDBFEEE80E
:100EF000F2E026E932E0A1EFB0E08C9181932E1769
:100F00003F07D9F70E9456018091E80083FF80C116
:100F1000EEE8F2E020813181832F90E08A30910564
:100F200008F076C1FC01EA5AFF4F0C947F14203878
:100F300021F0223809F06CC108C080918A0290919A
:100F40008B02992389F082600FC0809192028F708A
:100F5000873008F05DC1E9EEF0E080838091EB001E
:100F600085FB882780F91082E8EEF0E09081977F7A
:100F70009083A1EFB0E08C931C9280818E77808368
:100F80000E945E0545C1222309F451C1223009F0B7
:100F90003FC152C181E0333009F080E080938B0281
:100FA0002CC0809192028F709FEF980F963008F0BE
:100FB0002FC18093E9009091EB0090FF1EC09091AB
:100FC0008F02933031F4EBEEF0E080818062808319
:100FD00014C0EBEEF0E090819061908321E030E06E
:100FE000A90102C0440F551F8A95E2F7AAEEB0E0AE
:100FF0004C931C928081886080831092E900E8EE17
:10100000F0E08081877F80830E945E0501C121110D
:10101000FFC0109190021F77E3EEF0E080818078AE
:10102000812B8083E8EEF0E08081877F80830E94BF
:101030005E05E8EEF0E0808180FFFDCFE3EEF0E0BA
:10104000808180688083111102C082E001C083E04A
:1010500080938D02DDC02058223008F0D9C08091E5
:101060009002909191028C3D53E09507A1F583E0A9
:101070008A838AE289835FB7F894DE01139620E0C1
:101080003EE041E2E32FF0E040935700849120FFDF
:1010900003C082958F703F5F8F708A3018F090E0A8
:1010A000C79602C090E0C0968D939D932F5F243128
:1010B00049F75FBF08EE10E0F8018081877F8083E9
:1010C0006AE270E0CE0101960E94A102F8018081DF
:1010D0008B7780839DC060919202709193029E01F4
:1010E000255D3F4FAE014F5F5F4F0E94D200BC01B4
:1010F000892B09F48DC0E8EEF0E08081877F808342
:101100008BA5811105C089819A810E94B1030BC012
:10111000813029F489819A810E94490404C089811F
:101120009A810E94A102E8EEF0E080818B778083B3
:101130006FC0203809F06CC0E8EEF0E08081877F56
:101140008083809189028093F10080818E778083F3
:101150000E945E055DC021115BC09E01255D3F4F71
:10116000AE014F5F5F4F60E070E080E091E00E9471
:10117000D200892B09F44CC08BA581110EC0E981E6
:10118000FA817196849120919002309191023327D7
:1011900090E082179307E4F11DC0813079F48981D2
:1011A0009A8141960E94BF14209190023091910241
:1011B000332790E0821793075CF10CC020919002D6
:1011C000309191023327E981FA81818990E0821779
:1011D0009307F4F0E8EEF0E08081877F80838091D0
:1011E0009002809389020E945E0580918902882383
:1011F00021F084E080938D0209C08091E300882370
:1012000014F081E001C084E080938D020E943E01D1
:101210008091E80083FF16C0E8EEF0E08081877FD0
:101220008083EBEEF0E08081806280830BC0809150
:101230009002813069F7AECE80919002882309F444
:10124000B0CEDBCEAB960FB6F894DEBF0FBECDBFEF
:10125000DF91CF911F910F9108950895CF938091C1
:101260008D028823A1F0C091E900CF708091EC003D
:10127000982F917080FD90E8C92B1092E900809121
:10128000E80083FD0E946B07CF70C093E900CF9107
:1012900008951F920F920FB60F9211240F900FBE58
:1012A0000F901F9018958230910509F48BC034F48B
:1012B000009771F0019709F448C0089584309105B2
:1012C00009F4FAC00CF4BBC0059709F432C10895C3
:1012D00080912B01882361F18091240184608093A7
:1012E00024015A9A2A9A80912B01843631F4E1E73D
:1012F000F0E080818D7F80830895E1E7F0E08081D8
:1013000082608083A0912B010A2E000CBB0B2EEF74
:1013100033E00E94851424E630E040E050E00E9473
:101320003E142F5F3F4F309399002093980008950B
:10133000809124018B7F80932401E1E7F0E080819C
:101340008D7F80835A982A98089580912C01882354
:1013500061F1809124018860809324015B9A2B9A2B
:1013600080912C01843631F4E1E7F0E080818B7FBD
:1013700080830895E1E7F0E0808184608083A0911C
:101380002C010A2E000CBB0B2EEF33E00E948514BB
:1013900024E630E040E050E00E943E142F5F3F4FD3
:1013A00030939B0020939A00089580912401877FB9
:1013B00080932401E1E7F0E080818B7F80835B985C
:1013C0002B98089580912D01882361F1809124014B
:1013D0008061809324015C9A2C9A80912D0184363F
:1013E00031F4E1E7F0E08081877F80830895E1E7D1
:1013F000F0E0808188608083A0912D010A2E000C8E
:10140000BB0B2EEF33E00E94851424E630E040E071
:1014100050E00E943E142F5F3F4F30939D00209379
:101420009C000895809124018F7E80932401E1E740
:10143000F0E08081877F80835C982C98089580916C
:101440002E01882361F18091230180628093230122
:101450005D9A2D9A80912E01843631F4EFE6F0E00A
:1014600080818D7F80830895EFE6F0E08081826047
:101470008083A0912E010A2E000CBB0B2EEF33E0CF
:101480000E94851424E630E040E050E00E943E14C3
:101490002F5F3F4F309389002093880008958091FB
:1014A00023018F7D80932301EFE6F0E080818D7F23
:1014B00080835D982D98089580912F01882361F194
:1014C000809123018064809323015E9A2E9A8091FB
:1014D0002F01843631F4EFE6F0E080818B7F80834A
:1014E0000895EFE6F0E0808184608083A0912F0171
:1014F0000A2E000CBB0B2EEF33E00E94851424E66D
:1015000030E040E050E00E943E142F5F3F4F3093A8
:101510008B0020938A000895809123018F7B809314
:101520002301EFE6F0E080818B7F80835E982E9828
:10153000089580913001882361F1809123018068B2
:10154000809323015F9A2F9A80913001843631F481
:10155000EFE6F0E08081877F80830895EFE6F0E09A
:10156000808188608083A09130010A2E000CBB0B23
:101570002EEF33E00E94851424E630E040E050E096
:101580000E943E142F5F3F4F30938D0020938C00BC
:101590000895809123018F7780932301EFE6F0E097
:1015A0008081877F80835F982F9808952F923F9244
:1015B0004F925F926F927F928F929F92AF92BF9263
:1015C000CF92DF92EF92FF920F931F93CF93DF930F
:1015D000CDB7DEB728970FB6F894DEBF0FBECDBFEC
:1015E00000E010E00F2EF5E1DF2EF02DD09EF0018F
:1015F000D19EF00D1124E451FE4F8489811105C064
:10160000E0902501F090260113C0D09EF001D19EFC
:10161000F00D1124E451FE4F8489813029F4E090CB
:101620002901F0902A0104C0E0902701F0902801E0
:10163000D09EF001D19EF00D1124E451FE4F808127
:1016400090E0E816F90624F122E030E03A8329839D
:101650009F0110C0D09EF001D19EF00D1124E451E5
:10166000FE4F8389F801E55DFE4F8083C8010E942B
:101670005309B0C0E981FA81E20FF31F808190E045
:10168000E816F9060CF09DC089819A81892B81F4B6
:10169000D09EF001D19EF00D1124E451FE4F8181C6
:1016A000F801E55DFE4F8083C8010E94530992C096
:1016B000D09EC001D19E900D1124FC01E451FE4F3B
:1016C0001F01E981FA81E20DF31D608170E080E085
:1016D00090E00E940B134B015C01E981FA81319685
:1016E000E20DF31DC080E981FA813297E20DF31D0E
:1016F000608170E080E090E00E940B132B013C01C0
:1017000029813A8121503109220D331DF901F081DF
:10171000FD839B01AC01C501B4010E945E128111E1
:1017200005C0F801E55DFE4FC08247C06C2D70E03A
:1017300080E090E00E940B1369837A838B839C8303
:101740002D81622F70E080E090E00E940B132981D0
:101750003A814B815C810E94F1116D837E838F837E
:101760009887A5019401C301B2010E94F1119B0168
:10177000AC016D817E818F8198850E9463122B015F
:101780003C01B701FF0C880B990B0E940D13A501BA
:1017900094010E94F1119B01AC01C301B2010E94AE
:1017A000BD1329813A814B815C810E94F2110E9414
:1017B000D512F801E55DFE4F6083C8010E94530910
:1017C00009C089819A8102969A838983429709F098
:1017D00051CF40CF0F5F1F4F0630110509F006CFE4
:1017E00028960FB6F894DEBF0FBECDBFDF91CF9124
:1017F0001F910F91FF90EF90DF90CF90BF90AF902F
:101800009F908F907F906F905F904F903F902F9020
:101810000895EF92FF920F931F93CF93DF93FC01F4
:1018200032968C010B5F1F4F64E670E0C0E0D0E0A1
:101830000F2EFAE0EF2EF12CF02D219130E0205305
:101840003109269FC001279F900D369F900D1124CE
:10185000C80FD91FCB01B7010E942A14E017F10766
:1018600061F7D0932601C09325010E94D60ADF912B
:10187000CF911F910F91FF90EF900895AF92BF927B
:10188000DF92EF92FF920F931F93CF93DF938C0120
:10189000FC01C281D0E05E01F0E3AF1AB10880E044
:1018A00090E045E14A9D90014B9D300D112424515B
:1018B0003E4F44E6F901E80FF91F1082FC01319612
:1018C000E20FF31F408302968431910599F785E179
:1018D0008A9DF0018B9DF00D1124E451FE4F82E0B2
:1018E000848BF801A381AE52B0E0AA0FBB1F1A1679
:1018F0001B060CF047C0349620E030E044E050E096
:101900000F2EF4E6DF2EF02D85E18A9DB0018B9D30
:10191000700D112464517E4F9081905382818053C9
:101920009D9D800D11249181990F9056F92EFF0CE9
:10193000FF0C9F0DF82EF90E9381905385818053F3
:10194000E82E9D9DE00C11249481990F9056892FCB
:10195000880F880F980F8E2D890F4A5F5F4FEB011C
:10196000C20FD31FF88279019FEFE91AF90AEB0140
:10197000CE0DDF1D88832E5F3F4F36962A173B071B
:101980005CF202C044E050E0F801E40FF51F8081F2
:10199000805395E19A9DF0019B9DF00D1124E45137
:1019A000FE4F848B0E94D60ADF91CF911F910F9139
:1019B000FF90EF90DF90BF90AF900895FC01918170
:1019C0009333A1F028F4913341F0923359F017C0CA
:1019D000943379F0953381F012C086E090E00E9454
:1019E000CF0D0DC0CF010E943E0C09C00E940E0118
:1019F00006C00E94170103C0CF010E94090C81E0BC
:101A000090E0089580917C00813021F484E08093FF
:101A10007C000CC080917C00873019F410927C000F
:101A200005C0ECE7F0E080818F5F808380917C00CF
:101A300090E00895CF93DF93CDB7DEB7CA5CD109AC
:101A40000FB6F894DEBF0FBECDBFF894E1E6F0E02C
:101A500080E88083108285B7806885BF85B78068FD
:101A600085BF8FEF8AB984B985B910BA0E94E01199
:101A70000E9414100E9430100E9422010E9417013F
:101A800078940F2EF8EC8F2EF02D8E010F5F1F4FE4
:101A90000F2EF9EECF2ED12CF02D6894992491F8C9
:101AA0000F2EFCEBAF2EB12CF02D0F2EF5EE7F2E6E
:101AB000F02D0F2EF8EEEF2EF12CF02DF801882DE1
:101AC00011928A95E9F7C753DF4F19821882C95CD2
:101AD000D0400E942E0987E091E00E94C801F601E3
:101AE00090828091800290918102892BA9F080914F
:101AF000EA019091EB0101969093EB018093EA014A
:101B0000F50170820E94E30F109281021092800210
:101B100086E090E00E940D0E80917802909179020B
:101B2000892B19F00E94B50F18C0F701808182FF40
:101B300014C00E948205AE0147535F4F68EC70E00D
:101B4000C8010E944102F70180818B7780838981DF
:101B5000813219F4C8010E94DE0C8091EA01909153
:101B6000EB010B970CF4AACF1092EB011092EA0153
:101B70000E94D60AA3CFCF93DF93FB0134969B013B
:101B8000CAE0D0E0BE010E942A14805D8293862FB5
:101B9000972FE217F307B1F7DF91CF910895CF9315
:101BA000DF9300D000D01F92CDB7DEB791E09093C5
:101BB000E90095E0E3E4F1E0DE01119601900D9279
:101BC0009A95E1F7805D8D8340E050E065E070E03C
:101BD000CE0101960E94E10187E3898385E38A8330
:101BE00083E38B838DE08C838AE08D8340E050E03B
:101BF00065E070E0CE0101960E94E101E8EEF0E0C0
:101C000080818E77808381E090E00F900F900F901D
:101C10000F900F90DF91CF910895DF92EF92FF9296
:101C20000F931F93CF93DF93CDB7DEB72B970FB6EC
:101C3000F894DEBF0FBECDBF91E09093E90096E02F
:101C4000E9E4F1E0DE01119601900D929A95E1F739
:101C5000805D8E8340E050E066E070E0CE0101964A
:101C60000E94E10185E0E0E5F1E0DE0117960190D8
:101C70000D928A95E1F710E3E12CF12C09E30F2E88
:101C8000F3E2DF2EF02DF701EE0FFF1FEF5CFE4FAA
:101C900080819181892B69F0F701EE0FFF1FE659D2
:101CA000FD4F80819181BE01695F7F4F0E94BB0D16
:101CB00004C00F83088709870A87D9821A838F8116
:101CC0008B8388858C8389858D838A858E8340E08C
:101CD00050E066E070E0CE0101960E94E1018FEFD6
:101CE000E81AF80A1F5F163371F640E050E0BE01B3
:101CF000695F7F4F8091290190912A010E946C10A9
:101D000040E050E065E070E0CE0107960E94E101FE
:101D100041E050E0BE01695F7F4F809127019091C3
:101D200028010E946C1040E050E065E070E0CE01B8
:101D300007960E94E1018091880090918900BE0180
:101D4000695F7F4F0E94BB0D40E050E064E070E0AF
:101D5000CE0107960E94E10180918C0090918D0048
:101D6000BE01695F7F4F0E94BB0D40E050E064E020
:101D700070E0CE0107960E94E10187E3898385E345
:101D80008A8380E38B8383E38C838DE08D838AE079
:101D90008E8340E050E066E070E0CE0101960E9444
:101DA000E101E8EEF0E080818E77808381E090E0D1
:101DB0002B960FB6F894DEBF0FBECDBFDF91CF914B
:101DC0001F910F91FF90EF90DF9008951F920F9257
:101DD0000FB60F9211242F938F939F939BB18091F5
:101DE0002401892B8BB995B180912401892B85B968
:101DF00080917E0290917F02019690937F02809362
:101E00007E0280917E0290917F0288329D4354F041
:101E100010927F0210927E0281E090E09093810206
:101E2000809380029F918F912F910F900FBE0F9002
:101E30001F9018951F920F920FB60F9211248F9337
:101E40009F939BB180912301892B8BB995B1809190
:101E50002301892B85B99F918F910F900FBE0F9011
:101E60001F9018951F920F920FB60F9211248F9307
:101E70009F93EF93FF938091760290917702892B45
:101E800039F481E090E0909377028093760222C04B
:101E900080917A0290917B02892B49F480917E0295
:101EA00090917F0290937B0280937A0213C080917D
:101EB000780290917902892B69F4EFE6F0E0808155
:101EC0008F7D808380917E0290917F029093790232
:101ED00080937802FF91EF919F918F910F900FBEA9
:101EE0000F901F9018951F920F920FB60F9211240A
:101EF0005A980F900FBE0F901F9018951F920F9237
:101F00000FB60F9211245B980F900FBE0F901F9089
:101F100018951F920F920FB60F9211245C980F9094
:101F20000FBE0F901F9018951F920F920FB60F9231
:101F300011245D980F900FBE0F901F9018951F925F
:101F40000F920FB60F9211245E980F900FBE0F9054
:101F50001F9018951F920F920FB60F9211245F9841
:101F60000F900FBE0F901F9018952091780230911E
:101F7000790280917A0290917B02281B390B40E014
:101F800050E060EB7AE287E090E00E94601480917C
:101F90007C00E82F823014F0EEEFE80F822F932FB1
:101FA000EE0FFF0BE659FD4F9183808310927D0267
:101FB00010927C0210927B0210927A0210927902A7
:101FC0001092780208958091760290917702892B81
:101FD00091F4EFE6F0E080818F7D808380917C003A
:101FE000E82F823014F0EEEFE80FEE0FFF0BE6590A
:101FF000FD4F1182108210927702109276020E9499
:10200000020D10927D0210927C0210927B021092BF
:102010007A021092790210927802B59AEFE6F0E017
:10202000808180628083089510BA81B38FEF81BB75
:10203000EAE7F0E080818F778083EBE7F0E0808152
:1020400080648083ECE7F0E080818160808380B7EA
:10205000876480BFEFE7F0E080818160808308952E
:10206000E0E8F0E0808183608083E0E9F0E0808157
:1020700083608083E1E8F0E080818960808380EA8A
:102080008A95F1F7E1E9F0E0808189608083EFE6ED
:10209000F0E080818F608083E1E7F0E080818F60F5
:1020A000808384EF91E090938900809388009093DF
:1020B0008B0080938A0090938D0080938C00909386
:1020C00099008093980090939B0080939A0090933E
:1020D0009D0080939C0008950F931F93CF93DF93EF
:1020E000EB01FB0135968B010E5F1F4F2AE030E0BC
:1020F000B9010E942A14805D8293862F972FE017E2
:10210000F107B1F784E58883405D4983DF91CF9182
:102110001F910F9108951F920F920FB60F921124E5
:102120002F933F934F935F936F937F938F939F93DF
:10213000AF93BF93EF93FF930E942E09E091B900F4
:102140008E2F90E0FC013897E135F10508F027C1AA
:10215000E05AFF4F0C947F1480914101909142010D
:10216000892B89F08091860290918702892B21F03A
:102170008FE38093BB0003C08EE38093BB0085E8B0
:102180008093BC000CC18091840290918502892BC0
:1021900021F081E38093BB0003C080E38093BB0008
:1021A00085E88093BC00FBC085E08093BB0085E898
:1021B0008093BC00F4C085E98093BC00809141010C
:1021C00090914201892B29F0109242011092410115
:1021D000E6C081E090E09093420180934101DFC02E
:1021E00085E98093BC008091410190914201892B47
:1021F00059F081E090E090938702809386021092DC
:10220000420110924101CBC081E090E090938502A1
:10221000809384029093420180934101C0C085E97C
:102220008093BC00BCC085E88093BC00B8C085EC3E
:102230008093BC00B4C080E98093BC0080914101D0
:1022400090914201892B69F01092870210928602C8
:1022500010924201109241011092400110923F01F0
:102260009EC0109285021092840281E090E09093CB
:1022700042018093410110923E0110923D018FC0B6
:102280008091BB0090E0909383028093820285E866
:102290008093BC008091410190914201892B59F0BB
:1022A0008091820290918302982F88279093400119
:1022B00080933F0174C08091820290918302982F95
:1022C000882790933E0180933D0169C08091BB00B7
:1022D00090E0909383028093820285E98093BC0012
:1022E0008091410190914201892B61F120918202FC
:1022F0003091830280913F0190914001822B932B7A
:102300009093400180933F0180913F019091400163
:102310009F709595879595958795959587959595B2
:10232000879590932A01809329011092420110927F
:1023300041011092400110923F01109283021092CD
:1023400082022DC0209182023091830280913D0152
:1023500090913E01822B932B90933E0180933D01FF
:1023600080913D0190913E019F709595879595953F
:102370008795959587959595879590932801809356
:10238000270181E090E090934201809341011092F7
:102390003E0110923D011092830210928202FF9141
:1023A000EF91BF91AF919F918F917F916F915F91CD
:1023B0004F913F912F910F900FBE0F901F90189546
:1023C00080EF8093B800ECEBF0E08081856480833F
:1023D000AAEBB0E08C9185628C938081846A8083C3
:1023E00008955058BB27AA270E9409120C94831302
:1023F0000E94751338F00E947C1320F039F49F3F3F
:1024000019F426F40C9472130EF4E095E7FB0C9487
:102410006C13E92F0E94941358F3BA1762077307DD
:102420008407950720F079F4A6F50C94B6130EF402
:10243000E0950B2EBA2FA02D0B01B90190010C01D4
:10244000CA01A0011124FF27591B99F0593F50F4EC
:10245000503E68F11A16F040A22F232F342F442744
:10246000585FF3CF469537952795A795F04053953C
:10247000C9F77EF41F16BA0B620B730B840BBAF00C
:102480009150A1F0FF0FBB1F661F771F881FC2F777
:102490000EC0BA0F621F731F841F48F4879577958B
:1024A0006795B795F7959E3F08F0B0CF9395880F45
:1024B00008F09927EE0F9795879508950E94481385
:1024C00008F481E008950E9477120C9483130E940F
:1024D0007C1358F00E94751340F029F45F3F29F0F7
:1024E0000C946C1351110C94B7130C9472130E943A
:1024F000941368F39923B1F3552391F3951B550B6E
:10250000BB27AA2762177307840738F09F5F5F4FC6
:10251000220F331F441FAA1FA9F335D00E2E3AF005
:10252000E0E832D091505040E695001CCAF72BD01D
:10253000FE2F29D0660F771F881FBB1F261737076E
:102540004807AB07B0E809F0BB0B802DBF01FF27A0
:1025500093585F4F3AF09E3F510578F00C946C13FE
:102560000C94B7135F3FE4F3983ED4F386957795C8
:102570006795B795F7959F5FC9F7880F911D969559
:10258000879597F90895E1E0660F771F881FBB1FB5
:10259000621773078407BA0720F0621B730B840B62
:1025A000BA0BEE1F88F7E09508950E94DC1268943C
:1025B000B1110C94B71308950E949C1388F09F5793
:1025C00098F0B92F9927B751B0F0E1F0660F771F57
:1025D000881F991F1AF0BA95C9F714C0B13091F04D
:1025E0000E94B613B1E008950C94B613672F782FAC
:1025F0008827B85F39F0B93FCCF386957795679512
:10260000B395D9F73EF490958095709561957F4F7D
:102610008F4F9F4F0895E89409C097FB3EF4909523
:102620008095709561957F4F8F4F9F4F9923A9F0AB
:10263000F92F96E9BB279395F6958795779567953A
:10264000B795F111F8CFFAF4BB0F11F460FF1BC07E
:102650006F5F7F4F8F4F9F4F16C0882311F096E911
:1026600011C0772321F09EE8872F762F05C06623BF
:1026700071F096E8862F70E060E02AF09A95660F78
:10268000771F881FDAF7880F9695879597F9089531
:10269000990F0008550FAA0BE0E8FEEF1616170673
:1026A000E807F907C0F012161306E407F50798F0DB
:1026B000621B730B840B950B39F40A2661F0232BF4
:1026C000242B252B21F408950A2609F4A140A69570
:1026D0008FEF811D811D089597F99F6780E870E055
:1026E00060E008959FEF80EC089500240A94161688
:1026F000170618060906089500240A9412161306F0
:10270000140605060895092E0394000C11F488237D
:1027100052F0BB0F40F4BF2B11F460FF04C06F5F99
:102720007F4F8F4F9F4F089557FD9058440F551F6F
:1027300059F05F3F71F04795880F97FB991F61F043
:102740009F3F79F087950895121613061406551FBA
:10275000F2CF4695F1DF08C0161617061806991F26
:10276000F1CF86957105610508940895E894BB271B
:1027700066277727CB0197F908950E94D0130C9410
:1027800083130E94751338F00E947C1320F0952368
:1027900011F00C946C130C94721311240C94B71355
:1027A0000E94941370F3959FC1F3950F50E0551F4D
:1027B000629FF001729FBB27F00DB11D639FAA2796
:1027C000F00DB11DAA1F649F6627B00DA11D661FE5
:1027D000829F2227B00DA11D621F739FB00DA11D06
:1027E000621F839FA00D611D221F749F3327A00DC0
:1027F000611D231F849F600D211D822F762F6A2F5C
:1028000011249F5750409AF0F1F088234AF0EE0FC0
:10281000FF1FBB1F661F771F881F91505040A9F7ED
:102820009E3F510580F00C946C130C94B7135F3FDE
:10283000E4F3983ED4F3869577956795B795F79529
:10284000E7959F5FC1F7FE2B880F911D96958795A1
:1028500097F9089597FB072E16F4009407D077FD9B
:1028600009D00E948C1407FC05D03EF49095819508
:102870009F4F0895709561957F4F0895A1E21A2E9C
:10288000AA1BBB1BFD010DC0AA1FBB1FEE1FFF1F14
:10289000A217B307E407F50720F0A21BB30BE40B64
:1028A000F50B661F771F881F991F1A9469F76095AB
:1028B0007095809590959B01AC01BD01CF01089565
:1028C000052E97FB1EF400940E94771457FD07D045
:1028D0000E943E1407FC03D04EF40C9477145095DC
:1028E0004095309521953F4F4F4F5F4F08959095FC
:1028F0008095709561957F4F8F4F9F4F0895EE0F94
:10290000FF1F0590F491E02D09940E94A014B7FFD9
:102910000895821B930B0895AA1BBB1B51E107C0AE
:10292000AA1FBB1FA617B70710F0A61BB70B881F5F
:10293000991F5A95A9F780959095BC01CD010895EE
:10294000A29FB001B39FC001A39F700D811D1124F0
:10295000911DB29F700D811D1124911D0895DC0100
:10296000CB01FC01F999FECF06C0F2BDE1BDF89A9A
:10297000319600B40D9241505040B8F70895F9993E
:10298000FECF92BD81BDF89A992780B50895DC01EC
:10299000A40FB51F4150504048F0CB01840F951F44
:1029A0002E910E94D81441505040D0F70895262F00
:1029B000F999FECF92BD81BDF89A019700B4021635
:1029C00039F01FBA20BD0FB6F894FA9AF99A0FBEE3
:0629D0000895F894FFCF0A
:1029D60000000000000008008140000001024000E5
:1029E6000001830800000100000000000000000054
:1029F600000008E01C640064006400141E28281E01
:102A06001401000100010001000100010014000A88
:102A1600000100252525262000252525262620001F
:102A260030303030300020034C0055004600410065
:102A36002000550053004200200044006500760047
:102A4600690063006500000018034A006100630026
:102A56006B00200054006F00750062006500730073
:102A6600000009024600020100C032080B00020203
:102A76000201000904000001020201000524001001
:102A86000104240206052406000107058303080045
:102A9600FF09040100020A00000007058102400048
:102AA600050705020240000512011001EF020108A8
:0A2AB600616A6B6300010102DC019C
:00000001FF
